{
  "_format": "hh-sol-artifact-1",
  "contractName": "CustomDex",
  "sourceName": "contracts/CustomEx.sol",
  "abi": [
    {
      "inputs": [],
      "stateMutability": "nonpayable",
      "type": "constructor"
    },
    {
      "inputs": [],
      "name": "_historyIndex",
      "outputs": [
        {
          "internalType": "uint256",
          "name": "",
          "type": "uint256"
        }
      ],
      "stateMutability": "view",
      "type": "function"
    },
    {
      "inputs": [],
      "name": "getAllHistory",
      "outputs": [
        {
          "components": [
            {
              "internalType": "uint256",
              "name": "historyId",
              "type": "uint256"
            },
            {
              "internalType": "string",
              "name": "tokenA",
              "type": "string"
            },
            {
              "internalType": "string",
              "name": "tokenB",
              "type": "string"
            },
            {
              "internalType": "uint256",
              "name": "inputValue",
              "type": "uint256"
            },
            {
              "internalType": "uint256",
              "name": "outputValue",
              "type": "uint256"
            },
            {
              "internalType": "address",
              "name": "userAddress",
              "type": "address"
            }
          ],
          "internalType": "struct CustomDex.History[]",
          "name": "",
          "type": "tuple[]"
        }
      ],
      "stateMutability": "view",
      "type": "function"
    },
    {
      "inputs": [
        {
          "internalType": "string",
          "name": "tokenName",
          "type": "string"
        },
        {
          "internalType": "address",
          "name": "_address",
          "type": "address"
        }
      ],
      "name": "getBalance",
      "outputs": [
        {
          "internalType": "uint256",
          "name": "",
          "type": "uint256"
        }
      ],
      "stateMutability": "view",
      "type": "function"
    },
    {
      "inputs": [],
      "name": "getEthBalance",
      "outputs": [
        {
          "internalType": "uint256",
          "name": "",
          "type": "uint256"
        }
      ],
      "stateMutability": "view",
      "type": "function"
    },
    {
      "inputs": [
        {
          "internalType": "string",
          "name": "tokenName",
          "type": "string"
        }
      ],
      "name": "getName",
      "outputs": [
        {
          "internalType": "string",
          "name": "",
          "type": "string"
        }
      ],
      "stateMutability": "view",
      "type": "function"
    },
    {
      "inputs": [
        {
          "internalType": "string",
          "name": "tokenName",
          "type": "string"
        }
      ],
      "name": "getTokenAddress",
      "outputs": [
        {
          "internalType": "address",
          "name": "",
          "type": "address"
        }
      ],
      "stateMutability": "view",
      "type": "function"
    },
    {
      "inputs": [
        {
          "internalType": "string",
          "name": "tokenName",
          "type": "string"
        }
      ],
      "name": "getTotalSupply",
      "outputs": [
        {
          "internalType": "uint256",
          "name": "",
          "type": "uint256"
        }
      ],
      "stateMutability": "view",
      "type": "function"
    },
    {
      "inputs": [
        {
          "internalType": "string",
          "name": "tokenName",
          "type": "string"
        }
      ],
      "name": "swapEthToToken",
      "outputs": [
        {
          "internalType": "uint256",
          "name": "",
          "type": "uint256"
        }
      ],
      "stateMutability": "payable",
      "type": "function"
    },
    {
      "inputs": [
        {
          "internalType": "string",
          "name": "tokenName",
          "type": "string"
        },
        {
          "internalType": "uint256",
          "name": "_amount",
          "type": "uint256"
        }
      ],
      "name": "swapTokenToEth",
      "outputs": [
        {
          "internalType": "uint256",
          "name": "",
          "type": "uint256"
        }
      ],
      "stateMutability": "nonpayable",
      "type": "function"
    },
    {
      "inputs": [
        {
          "internalType": "string",
          "name": "srcTokenName",
          "type": "string"
        },
        {
          "internalType": "string",
          "name": "destTokenName",
          "type": "string"
        },
        {
          "internalType": "uint256",
          "name": "_amount",
          "type": "uint256"
        }
      ],
      "name": "swapTokenToToken",
      "outputs": [],
      "stateMutability": "nonpayable",
      "type": "function"
    },
    {
      "inputs": [
        {
          "internalType": "string",
          "name": "",
          "type": "string"
        }
      ],
      "name": "tokenInstanceMap",
      "outputs": [
        {
          "internalType": "contract ERC20",
          "name": "",
          "type": "address"
        }
      ],
      "stateMutability": "view",
      "type": "function"
    },
    {
      "inputs": [
        {
          "internalType": "uint256",
          "name": "",
          "type": "uint256"
        }
      ],
      "name": "tokens",
      "outputs": [
        {
          "internalType": "string",
          "name": "",
          "type": "string"
        }
      ],
      "stateMutability": "view",
      "type": "function"
    }
  ],
  "bytecode": "0x60806040526040518061010001604052806040518060400160405280600a81526020017f546574686572205553440000000000000000000000000000000000000000000081525081526020016040518060400160405280600381526020017f424e42000000000000000000000000000000000000000000000000000000000081525081526020016040518060400160405280600881526020017f55534420436f696e00000000000000000000000000000000000000000000000081525081526020016040518060400160405280600581526020017f737445544800000000000000000000000000000000000000000000000000000081525081526020016040518060400160405280600481526020017f54524f4e0000000000000000000000000000000000000000000000000000000081525081526020016040518060400160405280600b81526020017f4d6174696320546f6b656e00000000000000000000000000000000000000000081525081526020016040518060400160405280600981526020017f534849424120494e55000000000000000000000000000000000000000000000081525081526020016040518060400160405280600781526020017f556e6973776170000000000000000000000000000000000000000000000000008152508152506000906008620001f8929190620003a9565b50655af3107a40006002553480156200021057600080fd5b5060005b600080549050811015620003a25760008082815481106200025e577f4e487b7100000000000000000000000000000000000000000000000000000000600052603260045260246000fd5b9060005260206000200160008381548110620002a3577f4e487b7100000000000000000000000000000000000000000000000000000000600052603260045260246000fd5b90600052602060002001604051620002bb9062000410565b620002c89291906200066c565b604051809103906000f080158015620002e5573d6000803e3d6000fd5b5090508060016000848154811062000326577f4e487b7100000000000000000000000000000000000000000000000000000000600052603260045260246000fd5b906000526020600020016040516200033f919062000653565b908152602001604051809103902060006101000a81548173ffffffffffffffffffffffffffffffffffffffff021916908373ffffffffffffffffffffffffffffffffffffffff160217905550508080620003999062000718565b91505062000214565b50620007c4565b828054828255906000526020600020908101928215620003fd579160200282015b82811115620003fc578251829080519060200190620003eb9291906200041e565b5091602001919060010190620003ca565b5b5090506200040c9190620004af565b5090565b611823806200246383390190565b8280546200042c90620006e2565b90600052602060002090601f0160209004810192826200045057600085556200049c565b82601f106200046b57805160ff19168380011785556200049c565b828001600101855582156200049c579182015b828111156200049b5782518255916020019190600101906200047e565b5b509050620004ab9190620004d7565b5090565b5b80821115620004d35760008181620004c99190620004f6565b50600101620004b0565b5090565b5b80821115620004f2576000816000905550600101620004d8565b5090565b5080546200050490620006e2565b6000825580601f1062000518575062000539565b601f016020900490600052602060002090810190620005389190620004d7565b5b50565b600081546200054b81620006e2565b620005578186620006bc565b945060018216600081146200057557600181146200058857620005bf565b60ff1983168652602086019350620005bf565b6200059385620006a7565b60005b83811015620005b75781548189015260018201915060208101905062000596565b808801955050505b50505092915050565b60008154620005d781620006e2565b620005e38186620006cd565b9450600182166000811462000601576001811462000613576200064a565b60ff198316865281860193506200064a565b6200061e85620006a7565b60005b83811015620006425781548189015260018201915060208101905062000621565b838801955050505b50505092915050565b6000620006618284620005c8565b915081905092915050565b600060408201905081810360008301526200068881856200053c565b905081810360208301526200069e81846200053c565b90509392505050565b60008190508160005260206000209050919050565b600082825260208201905092915050565b600081905092915050565b6000819050919050565b60006002820490506001821680620006fb57607f821691505b6020821081141562000712576200071162000795565b5b50919050565b60006200072582620006d8565b91507fffffffffffffffffffffffffffffffffffffffffffffffffffffffffffffffff8214156200075b576200075a62000766565b5b600182019050919050565b7f4e487b7100000000000000000000000000000000000000000000000000000000600052601160045260246000fd5b7f4e487b7100000000000000000000000000000000000000000000000000000000600052602260045260246000fd5b611c8f80620007d46000396000f3fe6080604052600436106100a75760003560e01c806370ed0ada1161006457806370ed0ada146101e957806389f4b31714610214578063a93325ed14610251578063bf015aae1461028e578063c4091236146102b7578063db6f63ee146102f4576100a7565b806319b3c12d146100ac57806339c5891a146100d75780634f64b2be146101025780635463109e1461013f57806363fcf7c51461017c5780636932cf81146101ac575b600080fd5b3480156100b857600080fd5b506100c1610331565b6040516100ce9190611850565b60405180910390f35b3480156100e357600080fd5b506100ec610337565b6040516100f991906117b1565b60405180910390f35b34801561010e57600080fd5b5061012960048036038101906101249190611420565b610608565b60405161013691906117ee565b60405180910390f35b34801561014b57600080fd5b5061016660048036038101906101619190611277565b6106b4565b6040516101739190611850565b60405180910390f35b61019660048036038101906101919190611277565b610779565b6040516101a39190611850565b60405180910390f35b3480156101b857600080fd5b506101d360048036038101906101ce9190611277565b6108ff565b6040516101e091906117ee565b60405180910390f35b3480156101f557600080fd5b506101fe6109c9565b60405161020b9190611850565b60405180910390f35b34801561022057600080fd5b5061023b600480360381019061023691906112f9565b6109d1565b6040516102489190611850565b60405180910390f35b34801561025d57600080fd5b5061027860048036038101906102739190611277565b610aa2565b60405161028591906117d3565b60405180910390f35b34801561029a57600080fd5b506102b560048036038101906102b0919061134d565b610aeb565b005b3480156102c357600080fd5b506102de60048036038101906102d99190611277565b610d12565b6040516102eb9190611736565b60405180910390f35b34801561030057600080fd5b5061031b600480360381019061031691906113cc565b610d5a565b6040516103289190611850565b60405180910390f35b60035481565b6060600060035490506000808267ffffffffffffffff811115610383577f4e487b7100000000000000000000000000000000000000000000000000000000600052604160045260246000fd5b6040519080825280602002602001820160405280156103bc57816020015b6103a961103b565b8152602001906001900390816103a15790505b50905060005b838110156105fe5760006001826103d9919061193d565b90506000600460008381526020019081526020016000209050806040518060c00160405290816000820154815260200160018201805461041890611acc565b80601f016020809104026020016040519081016040528092919081815260200182805461044490611acc565b80156104915780601f1061046657610100808354040283529160200191610491565b820191906000526020600020905b81548152906001019060200180831161047457829003601f168201915b505050505081526020016002820180546104aa90611acc565b80601f01602080910402602001604051908101604052809291908181526020018280546104d690611acc565b80156105235780601f106104f857610100808354040283529160200191610523565b820191906000526020600020905b81548152906001019060200180831161050657829003601f168201915b5050505050815260200160038201548152602001600482015481526020016005820160009054906101000a900473ffffffffffffffffffffffffffffffffffffffff1673ffffffffffffffffffffffffffffffffffffffff1673ffffffffffffffffffffffffffffffffffffffff16815250508486815181106105cf577f4e487b7100000000000000000000000000000000000000000000000000000000600052603260045260246000fd5b60200260200101819052506001856105e7919061193d565b9450505080806105f690611afe565b9150506103c2565b5080935050505090565b6000818154811061061857600080fd5b90600052602060002001600091509050805461063390611acc565b80601f016020809104026020016040519081016040528092919081815260200182805461065f90611acc565b80156106ac5780601f10610681576101008083540402835291602001916106ac565b820191906000526020600020905b81548152906001019060200180831161068f57829003601f168201915b505050505081565b60006001826040516106c6919061171f565b908152602001604051809103902060009054906101000a900473ffffffffffffffffffffffffffffffffffffffff1673ffffffffffffffffffffffffffffffffffffffff166318160ddd6040518163ffffffff1660e01b815260040160206040518083038186803b15801561073a57600080fd5b505afa15801561074e573d6000803e3d6000fd5b505050506040513d601f19601f820116820180604052508101906107729190611449565b9050919050565b6000803490506000670de0b6b3a7640000600254836107989190611993565b6107a291906119c4565b90506001846040516107b4919061171f565b908152602001604051809103902060009054906101000a900473ffffffffffffffffffffffffffffffffffffffff1673ffffffffffffffffffffffffffffffffffffffff1663a9059cbb33836040518363ffffffff1660e01b815260040161081d929190611788565b602060405180830381600087803b15801561083757600080fd5b505af115801561084b573d6000803e3d6000fd5b505050506040513d601f19601f8201168201806040525081019061086f919061124e565b6108ae576040517f08c379a00000000000000000000000000000000000000000000000000000000081526004016108a590611810565b60405180910390fd5b60006040518060400160405280600581526020017f457468657200000000000000000000000000000000000000000000000000000081525090506108f485828585610f6d565b819350505050919050565b6060600182604051610911919061171f565b908152602001604051809103902060009054906101000a900473ffffffffffffffffffffffffffffffffffffffff1673ffffffffffffffffffffffffffffffffffffffff166306fdde036040518163ffffffff1660e01b815260040160006040518083038186803b15801561098557600080fd5b505afa158015610999573d6000803e3d6000fd5b505050506040513d6000823e3d601f19601f820116820180604052508101906109c291906112b8565b9050919050565b600047905090565b60006001836040516109e3919061171f565b908152602001604051809103902060009054906101000a900473ffffffffffffffffffffffffffffffffffffffff1673ffffffffffffffffffffffffffffffffffffffff166370a08231836040518263ffffffff1660e01b8152600401610a4a9190611736565b60206040518083038186803b158015610a6257600080fd5b505afa158015610a76573d6000803e3d6000fd5b505050506040513d601f19601f82011682018060405250810190610a9a9190611449565b905092915050565b6001818051602081018201805184825260208301602085012081835280955050505050506000915054906101000a900473ffffffffffffffffffffffffffffffffffffffff1681565b600183604051610afb919061171f565b908152602001604051809103902060009054906101000a900473ffffffffffffffffffffffffffffffffffffffff1673ffffffffffffffffffffffffffffffffffffffff166323b872dd3330846040518463ffffffff1660e01b8152600401610b6693929190611751565b602060405180830381600087803b158015610b8057600080fd5b505af1158015610b94573d6000803e3d6000fd5b505050506040513d601f19601f82011682018060405250810190610bb8919061124e565b610bf7576040517f08c379a0000000000000000000000000000000000000000000000000000000008152600401610bee90611810565b60405180910390fd5b600182604051610c07919061171f565b908152602001604051809103902060009054906101000a900473ffffffffffffffffffffffffffffffffffffffff1673ffffffffffffffffffffffffffffffffffffffff1663a9059cbb33836040518363ffffffff1660e01b8152600401610c70929190611788565b602060405180830381600087803b158015610c8a57600080fd5b505af1158015610c9e573d6000803e3d6000fd5b505050506040513d601f19601f82011682018060405250810190610cc2919061124e565b610d01576040517f08c379a0000000000000000000000000000000000000000000000000000000008152600401610cf890611810565b60405180910390fd5b610d0d83838384610f6d565b505050565b6000600182604051610d24919061171f565b908152602001604051809103902060009054906101000a900473ffffffffffffffffffffffffffffffffffffffff169050919050565b600080670de0b6b3a764000083610d7191906119c4565b9050600060025482610d8391906119c4565b905080471015610dc8576040517f08c379a0000000000000000000000000000000000000000000000000000000008152600401610dbf90611830565b60405180910390fd5b3373ffffffffffffffffffffffffffffffffffffffff166108fc829081150290604051600060405180830381858888f19350505050158015610e0e573d6000803e3d6000fd5b50600185604051610e1f919061171f565b908152602001604051809103902060009054906101000a900473ffffffffffffffffffffffffffffffffffffffff1673ffffffffffffffffffffffffffffffffffffffff166323b872dd3330876040518463ffffffff1660e01b8152600401610e8a93929190611751565b602060405180830381600087803b158015610ea457600080fd5b505af1158015610eb8573d6000803e3d6000fd5b505050506040513d601f19601f82011682018060405250810190610edc919061124e565b610f1b576040517f08c379a0000000000000000000000000000000000000000000000000000000008152600401610f1290611810565b60405180910390fd5b60006040518060400160405280600581526020017f45746865720000000000000000000000000000000000000000000000000000008152509050610f6186828585610f6d565b81935050505092915050565b60036000815480929190610f8090611afe565b9190505550600060035490506000600460008381526020019081526020016000209050818160000181905550338160050160006101000a81548173ffffffffffffffffffffffffffffffffffffffff021916908373ffffffffffffffffffffffffffffffffffffffff16021790555085816001019080519060200190611007929190611087565b5084816002019080519060200190611020929190611087565b50838160030181905550828160040181905550505050505050565b6040518060c001604052806000815260200160608152602001606081526020016000815260200160008152602001600073ffffffffffffffffffffffffffffffffffffffff1681525090565b82805461109390611acc565b90600052602060002090601f0160209004810192826110b557600085556110fc565b82601f106110ce57805160ff19168380011785556110fc565b828001600101855582156110fc579182015b828111156110fb5782518255916020019190600101906110e0565b5b509050611109919061110d565b5090565b5b8082111561112657600081600090555060010161110e565b5090565b600061113d6111388461189c565b61186b565b90508281526020810184848401111561115557600080fd5b611160848285611a8a565b509392505050565b600061117b6111768461189c565b61186b565b90508281526020810184848401111561119357600080fd5b61119e848285611a99565b509392505050565b6000813590506111b581611c14565b92915050565b6000815190506111ca81611c2b565b92915050565b600082601f8301126111e157600080fd5b81356111f184826020860161112a565b91505092915050565b600082601f83011261120b57600080fd5b815161121b848260208601611168565b91505092915050565b60008135905061123381611c42565b92915050565b60008151905061124881611c42565b92915050565b60006020828403121561126057600080fd5b600061126e848285016111bb565b91505092915050565b60006020828403121561128957600080fd5b600082013567ffffffffffffffff8111156112a357600080fd5b6112af848285016111d0565b91505092915050565b6000602082840312156112ca57600080fd5b600082015167ffffffffffffffff8111156112e457600080fd5b6112f0848285016111fa565b91505092915050565b6000806040838503121561130c57600080fd5b600083013567ffffffffffffffff81111561132657600080fd5b611332858286016111d0565b9250506020611343858286016111a6565b9150509250929050565b60008060006060848603121561136257600080fd5b600084013567ffffffffffffffff81111561137c57600080fd5b611388868287016111d0565b935050602084013567ffffffffffffffff8111156113a557600080fd5b6113b1868287016111d0565b92505060406113c286828701611224565b9150509250925092565b600080604083850312156113df57600080fd5b600083013567ffffffffffffffff8111156113f957600080fd5b611405858286016111d0565b925050602061141685828601611224565b9150509250929050565b60006020828403121561143257600080fd5b600061144084828501611224565b91505092915050565b60006020828403121561145b57600080fd5b600061146984828501611239565b91505092915050565b600061147e8383611671565b905092915050565b61148f81611a1e565b82525050565b61149e81611a1e565b82525050565b60006114af826118dc565b6114b981856118ff565b9350836020820285016114cb856118cc565b8060005b8581101561150757848403895281516114e88582611472565b94506114f3836118f2565b925060208a019950506001810190506114cf565b50829750879550505050505092915050565b61152281611a66565b82525050565b6000611533826118e7565b61153d8185611910565b935061154d818560208601611a99565b61155681611c03565b840191505092915050565b600061156c826118e7565b6115768185611921565b9350611586818560208601611a99565b61158f81611c03565b840191505092915050565b60006115a5826118e7565b6115af8185611932565b93506115bf818560208601611a99565b80840191505092915050565b60006115d8600f83611921565b91507f5472616e73666572206661696c656400000000000000000000000000000000006000830152602082019050919050565b6000611618602383611921565b91507f4f6f707321204465782069732072756e6e696e67206c6f77206f6e2062616c6160008301527f6e636500000000000000000000000000000000000000000000000000000000006020830152604082019050919050565b600060c0830160008301516116896000860182611701565b50602083015184820360208601526116a18282611528565b915050604083015184820360408601526116bb8282611528565b91505060608301516116d06060860182611701565b5060808301516116e36080860182611701565b5060a08301516116f660a0860182611486565b508091505092915050565b61170a81611a5c565b82525050565b61171981611a5c565b82525050565b600061172b828461159a565b915081905092915050565b600060208201905061174b6000830184611495565b92915050565b60006060820190506117666000830186611495565b6117736020830185611495565b6117806040830184611710565b949350505050565b600060408201905061179d6000830185611495565b6117aa6020830184611710565b9392505050565b600060208201905081810360008301526117cb81846114a4565b905092915050565b60006020820190506117e86000830184611519565b92915050565b600060208201905081810360008301526118088184611561565b905092915050565b60006020820190508181036000830152611829816115cb565b9050919050565b600060208201905081810360008301526118498161160b565b9050919050565b60006020820190506118656000830184611710565b92915050565b6000604051905081810181811067ffffffffffffffff8211171561189257611891611bd4565b5b8060405250919050565b600067ffffffffffffffff8211156118b7576118b6611bd4565b5b601f19601f8301169050602081019050919050565b6000819050602082019050919050565b600081519050919050565b600081519050919050565b6000602082019050919050565b600082825260208201905092915050565b600082825260208201905092915050565b600082825260208201905092915050565b600081905092915050565b600061194882611a5c565b915061195383611a5c565b9250827fffffffffffffffffffffffffffffffffffffffffffffffffffffffffffffffff0382111561198857611987611b47565b5b828201905092915050565b600061199e82611a5c565b91506119a983611a5c565b9250826119b9576119b8611b76565b5b828204905092915050565b60006119cf82611a5c565b91506119da83611a5c565b9250817fffffffffffffffffffffffffffffffffffffffffffffffffffffffffffffffff0483118215151615611a1357611a12611b47565b5b828202905092915050565b6000611a2982611a3c565b9050919050565b60008115159050919050565b600073ffffffffffffffffffffffffffffffffffffffff82169050919050565b6000819050919050565b6000611a7182611a78565b9050919050565b6000611a8382611a3c565b9050919050565b82818337600083830152505050565b60005b83811015611ab7578082015181840152602081019050611a9c565b83811115611ac6576000848401525b50505050565b60006002820490506001821680611ae457607f821691505b60208210811415611af857611af7611ba5565b5b50919050565b6000611b0982611a5c565b91507fffffffffffffffffffffffffffffffffffffffffffffffffffffffffffffffff821415611b3c57611b3b611b47565b5b600182019050919050565b7f4e487b7100000000000000000000000000000000000000000000000000000000600052601160045260246000fd5b7f4e487b7100000000000000000000000000000000000000000000000000000000600052601260045260246000fd5b7f4e487b7100000000000000000000000000000000000000000000000000000000600052602260045260246000fd5b7f4e487b7100000000000000000000000000000000000000000000000000000000600052604160045260246000fd5b6000601f19601f8301169050919050565b611c1d81611a1e565b8114611c2857600080fd5b50565b611c3481611a30565b8114611c3f57600080fd5b50565b611c4b81611a5c565b8114611c5657600080fd5b5056fea2646970667358221220f7c8ebca08efe371ca812080637f2392962dae690ee88fb31d6bb0ead691f8c964736f6c6343000800003360806040523480156200001157600080fd5b506040516200182338038062001823833981810160405281019062000037919062000337565b818181600390805190602001906200005192919062000215565b5080600490805190602001906200006a92919062000215565b5050506200008a336a084595161401484a0000006200009260201b60201c565b505062000614565b600073ffffffffffffffffffffffffffffffffffffffff168273ffffffffffffffffffffffffffffffffffffffff16141562000105576040517f08c379a0000000000000000000000000000000000000000000000000000000008152600401620000fc90620003fd565b60405180910390fd5b62000119600083836200020b60201b60201c565b80600260008282546200012d9190620004b4565b92505081905550806000808473ffffffffffffffffffffffffffffffffffffffff1673ffffffffffffffffffffffffffffffffffffffff1681526020019081526020016000206000828254620001849190620004b4565b925050819055508173ffffffffffffffffffffffffffffffffffffffff16600073ffffffffffffffffffffffffffffffffffffffff167fddf252ad1be2c89b69c2b068fc378daa952ba7f163c4a11628f55a4df523b3ef83604051620001eb91906200041f565b60405180910390a362000207600083836200021060201b60201c565b5050565b505050565b505050565b828054620002239062000551565b90600052602060002090601f01602090048101928262000247576000855562000293565b82601f106200026257805160ff191683800117855562000293565b8280016001018555821562000293579182015b828111156200029257825182559160200191906001019062000275565b5b509050620002a29190620002a6565b5090565b5b80821115620002c1576000816000905550600101620002a7565b5090565b6000620002dc620002d68462000470565b6200043c565b905082815260208101848484011115620002f557600080fd5b620003028482856200051b565b509392505050565b600082601f8301126200031c57600080fd5b81516200032e848260208601620002c5565b91505092915050565b600080604083850312156200034b57600080fd5b600083015167ffffffffffffffff8111156200036657600080fd5b62000374858286016200030a565b925050602083015167ffffffffffffffff8111156200039257600080fd5b620003a0858286016200030a565b9150509250929050565b6000620003b9601f83620004a3565b91507f45524332303a206d696e7420746f20746865207a65726f2061646472657373006000830152602082019050919050565b620003f78162000511565b82525050565b600060208201905081810360008301526200041881620003aa565b9050919050565b6000602082019050620004366000830184620003ec565b92915050565b6000604051905081810181811067ffffffffffffffff82111715620004665762000465620005e5565b5b8060405250919050565b600067ffffffffffffffff8211156200048e576200048d620005e5565b5b601f19601f8301169050602081019050919050565b600082825260208201905092915050565b6000620004c18262000511565b9150620004ce8362000511565b9250827fffffffffffffffffffffffffffffffffffffffffffffffffffffffffffffffff0382111562000506576200050562000587565b5b828201905092915050565b6000819050919050565b60005b838110156200053b5780820151818401526020810190506200051e565b838111156200054b576000848401525b50505050565b600060028204905060018216806200056a57607f821691505b60208210811415620005815762000580620005b6565b5b50919050565b7f4e487b7100000000000000000000000000000000000000000000000000000000600052601160045260246000fd5b7f4e487b7100000000000000000000000000000000000000000000000000000000600052602260045260246000fd5b7f4e487b7100000000000000000000000000000000000000000000000000000000600052604160045260246000fd5b6111ff80620006246000396000f3fe608060405234801561001057600080fd5b50600436106100a95760003560e01c80633950935111610071578063395093511461016857806370a082311461019857806395d89b41146101c8578063a457c2d7146101e6578063a9059cbb14610216578063dd62ed3e14610246576100a9565b806306fdde03146100ae578063095ea7b3146100cc57806318160ddd146100fc57806323b872dd1461011a578063313ce5671461014a575b600080fd5b6100b6610276565b6040516100c39190610ec8565b60405180910390f35b6100e660048036038101906100e19190610b67565b610308565b6040516100f39190610ead565b60405180910390f35b61010461032b565b6040516101119190610fca565b60405180910390f35b610134600480360381019061012f9190610b18565b610335565b6040516101419190610ead565b60405180910390f35b610152610364565b60405161015f9190610fe5565b60405180910390f35b610182600480360381019061017d9190610b67565b61036d565b60405161018f9190610ead565b60405180910390f35b6101b260048036038101906101ad9190610ab3565b6103a4565b6040516101bf9190610fca565b60405180910390f35b6101d06103ec565b6040516101dd9190610ec8565b60405180910390f35b61020060048036038101906101fb9190610b67565b61047e565b60405161020d9190610ead565b60405180910390f35b610230600480360381019061022b9190610b67565b6104f5565b60405161023d9190610ead565b60405180910390f35b610260600480360381019061025b9190610adc565b610518565b60405161026d9190610fca565b60405180910390f35b606060038054610285906110fa565b80601f01602080910402602001604051908101604052809291908181526020018280546102b1906110fa565b80156102fe5780601f106102d3576101008083540402835291602001916102fe565b820191906000526020600020905b8154815290600101906020018083116102e157829003601f168201915b5050505050905090565b60008061031361059f565b90506103208185856105a7565b600191505092915050565b6000600254905090565b60008061034061059f565b905061034d858285610772565b6103588585856107fe565b60019150509392505050565b60006012905090565b60008061037861059f565b905061039981858561038a8589610518565b610394919061101c565b6105a7565b600191505092915050565b60008060008373ffffffffffffffffffffffffffffffffffffffff1673ffffffffffffffffffffffffffffffffffffffff168152602001908152602001600020549050919050565b6060600480546103fb906110fa565b80601f0160208091040260200160405190810160405280929190818152602001828054610427906110fa565b80156104745780601f1061044957610100808354040283529160200191610474565b820191906000526020600020905b81548152906001019060200180831161045757829003601f168201915b5050505050905090565b60008061048961059f565b905060006104978286610518565b9050838110156104dc576040517f08c379a00000000000000000000000000000000000000000000000000000000081526004016104d390610faa565b60405180910390fd5b6104e982868684036105a7565b60019250505092915050565b60008061050061059f565b905061050d8185856107fe565b600191505092915050565b6000600160008473ffffffffffffffffffffffffffffffffffffffff1673ffffffffffffffffffffffffffffffffffffffff16815260200190815260200160002060008373ffffffffffffffffffffffffffffffffffffffff1673ffffffffffffffffffffffffffffffffffffffff16815260200190815260200160002054905092915050565b600033905090565b600073ffffffffffffffffffffffffffffffffffffffff168373ffffffffffffffffffffffffffffffffffffffff161415610617576040517f08c379a000000000000000000000000000000000000000000000000000000000815260040161060e90610f8a565b60405180910390fd5b600073ffffffffffffffffffffffffffffffffffffffff168273ffffffffffffffffffffffffffffffffffffffff161415610687576040517f08c379a000000000000000000000000000000000000000000000000000000000815260040161067e90610f0a565b60405180910390fd5b80600160008573ffffffffffffffffffffffffffffffffffffffff1673ffffffffffffffffffffffffffffffffffffffff16815260200190815260200160002060008473ffffffffffffffffffffffffffffffffffffffff1673ffffffffffffffffffffffffffffffffffffffff168152602001908152602001600020819055508173ffffffffffffffffffffffffffffffffffffffff168373ffffffffffffffffffffffffffffffffffffffff167f8c5be1e5ebec7d5bd14f71427d1e84f3dd0314c0f7b2291e5b200ac8c7c3b925836040516107659190610fca565b60405180910390a3505050565b600061077e8484610518565b90507fffffffffffffffffffffffffffffffffffffffffffffffffffffffffffffffff81146107f857818110156107ea576040517f08c379a00000000000000000000000000000000000000000000000000000000081526004016107e190610f2a565b60405180910390fd5b6107f784848484036105a7565b5b50505050565b600073ffffffffffffffffffffffffffffffffffffffff168373ffffffffffffffffffffffffffffffffffffffff16141561086e576040517f08c379a000000000000000000000000000000000000000000000000000000000815260040161086590610f6a565b60405180910390fd5b600073ffffffffffffffffffffffffffffffffffffffff168273ffffffffffffffffffffffffffffffffffffffff1614156108de576040517f08c379a00000000000000000000000000000000000000000000000000000000081526004016108d590610eea565b60405180910390fd5b6108e9838383610a7f565b60008060008573ffffffffffffffffffffffffffffffffffffffff1673ffffffffffffffffffffffffffffffffffffffff1681526020019081526020016000205490508181101561096f576040517f08c379a000000000000000000000000000000000000000000000000000000000815260040161096690610f4a565b60405180910390fd5b8181036000808673ffffffffffffffffffffffffffffffffffffffff1673ffffffffffffffffffffffffffffffffffffffff16815260200190815260200160002081905550816000808573ffffffffffffffffffffffffffffffffffffffff1673ffffffffffffffffffffffffffffffffffffffff1681526020019081526020016000206000828254610a02919061101c565b925050819055508273ffffffffffffffffffffffffffffffffffffffff168473ffffffffffffffffffffffffffffffffffffffff167fddf252ad1be2c89b69c2b068fc378daa952ba7f163c4a11628f55a4df523b3ef84604051610a669190610fca565b60405180910390a3610a79848484610a84565b50505050565b505050565b505050565b600081359050610a988161119b565b92915050565b600081359050610aad816111b2565b92915050565b600060208284031215610ac557600080fd5b6000610ad384828501610a89565b91505092915050565b60008060408385031215610aef57600080fd5b6000610afd85828601610a89565b9250506020610b0e85828601610a89565b9150509250929050565b600080600060608486031215610b2d57600080fd5b6000610b3b86828701610a89565b9350506020610b4c86828701610a89565b9250506040610b5d86828701610a9e565b9150509250925092565b60008060408385031215610b7a57600080fd5b6000610b8885828601610a89565b9250506020610b9985828601610a9e565b9150509250929050565b610bac81611084565b82525050565b6000610bbd82611000565b610bc7818561100b565b9350610bd78185602086016110c7565b610be08161118a565b840191505092915050565b6000610bf860238361100b565b91507f45524332303a207472616e7366657220746f20746865207a65726f206164647260008301527f65737300000000000000000000000000000000000000000000000000000000006020830152604082019050919050565b6000610c5e60228361100b565b91507f45524332303a20617070726f766520746f20746865207a65726f20616464726560008301527f73730000000000000000000000000000000000000000000000000000000000006020830152604082019050919050565b6000610cc4601d8361100b565b91507f45524332303a20696e73756666696369656e7420616c6c6f77616e63650000006000830152602082019050919050565b6000610d0460268361100b565b91507f45524332303a207472616e7366657220616d6f756e742065786365656473206260008301527f616c616e636500000000000000000000000000000000000000000000000000006020830152604082019050919050565b6000610d6a60258361100b565b91507f45524332303a207472616e736665722066726f6d20746865207a65726f20616460008301527f64726573730000000000000000000000000000000000000000000000000000006020830152604082019050919050565b6000610dd060248361100b565b91507f45524332303a20617070726f76652066726f6d20746865207a65726f2061646460008301527f72657373000000000000000000000000000000000000000000000000000000006020830152604082019050919050565b6000610e3660258361100b565b91507f45524332303a2064656372656173656420616c6c6f77616e63652062656c6f7760008301527f207a65726f0000000000000000000000000000000000000000000000000000006020830152604082019050919050565b610e98816110b0565b82525050565b610ea7816110ba565b82525050565b6000602082019050610ec26000830184610ba3565b92915050565b60006020820190508181036000830152610ee28184610bb2565b905092915050565b60006020820190508181036000830152610f0381610beb565b9050919050565b60006020820190508181036000830152610f2381610c51565b9050919050565b60006020820190508181036000830152610f4381610cb7565b9050919050565b60006020820190508181036000830152610f6381610cf7565b9050919050565b60006020820190508181036000830152610f8381610d5d565b9050919050565b60006020820190508181036000830152610fa381610dc3565b9050919050565b60006020820190508181036000830152610fc381610e29565b9050919050565b6000602082019050610fdf6000830184610e8f565b92915050565b6000602082019050610ffa6000830184610e9e565b92915050565b600081519050919050565b600082825260208201905092915050565b6000611027826110b0565b9150611032836110b0565b9250827fffffffffffffffffffffffffffffffffffffffffffffffffffffffffffffffff038211156110675761106661112c565b5b828201905092915050565b600061107d82611090565b9050919050565b60008115159050919050565b600073ffffffffffffffffffffffffffffffffffffffff82169050919050565b6000819050919050565b600060ff82169050919050565b60005b838110156110e55780820151818401526020810190506110ca565b838111156110f4576000848401525b50505050565b6000600282049050600182168061111257607f821691505b602082108114156111265761112561115b565b5b50919050565b7f4e487b7100000000000000000000000000000000000000000000000000000000600052601160045260246000fd5b7f4e487b7100000000000000000000000000000000000000000000000000000000600052602260045260246000fd5b6000601f19601f8301169050919050565b6111a481611072565b81146111af57600080fd5b50565b6111bb816110b0565b81146111c657600080fd5b5056fea26469706673582212203ccbab1750d334cb994571633e74fd2cc3a135c8ca4fed595a96251416fd448164736f6c63430008000033",
  "linkReferences": {},
  "deployedLinkReferences": {}
}